{
  "_format": "hh-sol-artifact-1",
  "contractName": "Todolist",
  "sourceName": "contracts/Todolist.sol",
  "abi": [
    {
      "inputs": [
        {
          "internalType": "string",
          "name": "newHash",
          "type": "string"
        }
      ],
      "name": "addHash",
      "outputs": [],
      "stateMutability": "nonpayable",
      "type": "function"
    },
    {
      "inputs": [],
      "name": "getAllHash",
      "outputs": [
        {
          "internalType": "string[]",
          "name": "",
          "type": "string[]"
        }
      ],
      "stateMutability": "view",
      "type": "function"
    },
    {
      "inputs": [],
      "name": "getLastHash",
      "outputs": [
        {
          "internalType": "string",
          "name": "",
          "type": "string"
        }
      ],
      "stateMutability": "view",
      "type": "function"
    }
  ],
  "bytecode": "0x608060405234801561001057600080fd5b50610966806100206000396000f3fe608060405234801561001057600080fd5b50600436106100415760003560e01c80634a91004614610046578063560b318c14610064578063aeb2760214610082575b600080fd5b61004e61009e565b60405161005b91906106d1565b60405180910390f35b61006c610252565b60405161007991906106af565b60405180910390f35b61009c60048036038101906100979190610573565b61036a565b005b606060008060003373ffffffffffffffffffffffffffffffffffffffff1673ffffffffffffffffffffffffffffffffffffffff168152602001908152602001600020600101805480602002602001604051908101604052809291908181526020016000905b828210156101af5783829060005260206000200180546101229061082f565b80601f016020809104026020016040519081016040528092919081815260200182805461014e9061082f565b801561019b5780601f106101705761010080835404028352916020019161019b565b820191906000526020600020905b81548152906001019060200180831161017e57829003601f168201915b505050505081526020019060010190610103565b5050505090506000815114156101fd576040518060400160405280600d81526020017f4e6f20686173682061646465640000000000000000000000000000000000000081525091505061024f565b806001825161020c91906107af565b81518110610243577f4e487b7100000000000000000000000000000000000000000000000000000000600052603260045260246000fd5b60200260200101519150505b90565b60606000803373ffffffffffffffffffffffffffffffffffffffff1673ffffffffffffffffffffffffffffffffffffffff168152602001908152602001600020600101805480602002602001604051908101604052809291908181526020016000905b828210156103615783829060005260206000200180546102d49061082f565b80601f01602080910402602001604051908101604052809291908181526020018280546103009061082f565b801561034d5780601f106103225761010080835404028352916020019161034d565b820191906000526020600020905b81548152906001019060200180831161033057829003601f168201915b5050505050815260200190600101906102b5565b50505050905090565b336000803373ffffffffffffffffffffffffffffffffffffffff1673ffffffffffffffffffffffffffffffffffffffff16815260200190815260200160002060000160006101000a81548173ffffffffffffffffffffffffffffffffffffffff021916908373ffffffffffffffffffffffffffffffffffffffff1602179055506000803373ffffffffffffffffffffffffffffffffffffffff1673ffffffffffffffffffffffffffffffffffffffff16815260200190815260200160002060010181908060018154018082558091505060019003906000526020600020016000909190919091509080519060200190610464929190610468565b5050565b8280546104749061082f565b90600052602060002090601f01602090048101928261049657600085556104dd565b82601f106104af57805160ff19168380011785556104dd565b828001600101855582156104dd579182015b828111156104dc5782518255916020019190600101906104c1565b5b5090506104ea91906104ee565b5090565b5b808211156105075760008160009055506001016104ef565b5090565b600061051e61051984610718565b6106f3565b90508281526020810184848401111561053657600080fd5b6105418482856107ed565b509392505050565b600082601f83011261055a57600080fd5b813561056a84826020860161050b565b91505092915050565b60006020828403121561058557600080fd5b600082013567ffffffffffffffff81111561059f57600080fd5b6105ab84828501610549565b91505092915050565b60006105c0838361063d565b905092915050565b60006105d382610759565b6105dd818561077c565b9350836020820285016105ef85610749565b8060005b8581101561062b578484038952815161060c85826105b4565b94506106178361076f565b925060208a019950506001810190506105f3565b50829750879550505050505092915050565b600061064882610764565b610652818561078d565b93506106628185602086016107fc565b61066b8161091f565b840191505092915050565b600061068182610764565b61068b818561079e565b935061069b8185602086016107fc565b6106a48161091f565b840191505092915050565b600060208201905081810360008301526106c981846105c8565b905092915050565b600060208201905081810360008301526106eb8184610676565b905092915050565b60006106fd61070e565b90506107098282610861565b919050565b6000604051905090565b600067ffffffffffffffff821115610733576107326108f0565b5b61073c8261091f565b9050602081019050919050565b6000819050602082019050919050565b600081519050919050565b600081519050919050565b6000602082019050919050565b600082825260208201905092915050565b600082825260208201905092915050565b600082825260208201905092915050565b60006107ba826107e3565b91506107c5836107e3565b9250828210156107d8576107d7610892565b5b828203905092915050565b6000819050919050565b82818337600083830152505050565b60005b8381101561081a5780820151818401526020810190506107ff565b83811115610829576000848401525b50505050565b6000600282049050600182168061084757607f821691505b6020821081141561085b5761085a6108c1565b5b50919050565b61086a8261091f565b810181811067ffffffffffffffff82111715610889576108886108f0565b5b80604052505050565b7f4e487b7100000000000000000000000000000000000000000000000000000000600052601160045260246000fd5b7f4e487b7100000000000000000000000000000000000000000000000000000000600052602260045260246000fd5b7f4e487b7100000000000000000000000000000000000000000000000000000000600052604160045260246000fd5b6000601f19601f830116905091905056fea26469706673582212205d6aa05d053b5d9e4f096431949f0a7156b161064d281f33549fb97ab40a8e1f64736f6c63430008040033",
  "linkReferences": {},
  "deployedLinkReferences": {}
}